:100000000C942A000C944A000C9498000C94E6007E
:100010000C9447000C9447000C9447000C94470044
:100020000C9447000C9447000C9447000C94470034
:100030000C9447000C9447000C9447000C94470024
:100040000C9447000C9447000C9447000C94470014
:100050000C94470011241FBECFE5D8E0DEBFCDBF12
:1000600010E0A0E6B0E0E6E4F2E002C005900D92F8
:10007000A036B107D9F720E0A0E6B0E001C01D929C
:10008000AE36B207E1F70E9449000C9421010C94AE
:100090000000FFCF1F920F920FB60F9211242F93E3
:1000A0003F934F935F936F937F938F939F93AF9300
:1000B000BF93CF93EF93FF93CFB78AB78095807AA2
:1000C00080648ABFE0916C00F0916D00309711F070
:1000D000099512C08091660090916700009761F0C9
:1000E000E0916200F0916300309731F0829B03C091
:1000F000FC01099501C00995FFEF20E782E0F1506E
:1001000020408040E1F700C00000CFBFFF91EF9199
:10011000CF91BF91AF919F918F917F916F915F919F
:100120004F913F912F910F900FBE0F901F901895F8
:100130001F920F920FB60F9211242F933F934F935C
:100140005F936F937F938F939F93AF93BF93CF935F
:10015000EF93FF93CFB78AB78095807680688ABF88
:10016000E0916A00F0916B00309711F0099512C090
:100170008091640090916500009761F0E0916000CB
:10018000F0916100309731F0839B03C0FC01099529
:1001900001C00995FFEF20E782E0F1502040804048
:1001A000E1F700C00000CFBFFF91EF91CF91BF9169
:1001B000AF919F918F917F916F915F914F913F91FF
:1001C0002F910F900FBE0F901F9018951F920F92B6
:1001D0000FB60F9211242F933F934F935F936F931A
:1001E0007F938F939F93AF93BF93CF93EF93FF939F
:1001F000CFB78AB78095807C80628ABFE091680023
:10020000F0916900309709F009952FEF80E792E0AF
:10021000215080409040E1F700C00000CFBFFF9127
:10022000EF91CF91BF91AF919F918F917F916F91FE
:100230005F914F913F912F910F900FBE0F901F90A4
:060240001895F894FFCFB1
:00000001FF
